:10000000EFC000001DC100001BC1000019C10000AD
:1000100017C1000015C1000013C1000011C100008C
:100020000FC100000DC100000BC1000009C100009C
:1000300007C1000005C1000003C1000001C10000AC
:10004000FFC00000FDC00000FBC00000F9C00000C0
:10005000F7C00000F5C00000F3C0000048C3000076
:10006000EFC000000EC30000E3C20000E9C00000C2
:10007000E7C00000E5C00000E3C00000E1C00000F0
:10008000DFC00000DDC00000DBC00000D9C0000000
:10009000D7C00000D5C00000D3C00000D1C0000010
:1000A000CFC00000CDC00000CBC00000C9C0000020
:1000B000C7C00000C5C00000C3C00000C1C0000030
:1000C000BFC00000BDC00000BBC00000B9C0000040
:1000D000B7C00000B5C00000B3C00000B1C0000050
:1000E000AFC0000000407A10F35A00A0724E180909
:1000F0000010A5D4E80000E87648170000E40B548F
:10010000020000CA9A3B000000E1F505000080965D
:100110009800000040420F000000A086010000008F
:10012000102700000000E803000000006400000049
:1001300000000A00000000000100000000002C7612
:10014000D888DC674F0823DFC1DFAE59E1B1B7962D
:10015000E5E3E453C63AE651997696E8E6C284268A
:10016000EB898C9B62ED407C6FFCEFBC9C9F40F266
:10017000BAA56FA5F490055A2AF75C936B6CF967E2
:100180006DC11BFCE0E40D47FEF520E6B500D0EDA7
:10019000902E0300943577050080841E080000200F
:1001A0004E0A000000C80C333333330F986E1283AD
:1001B0001141EF8D2114893BE65516CFFEE6DB1881
:1001C000D1844B381BF77C1D901DA4BBE424203246
:1001D00084725E228100C9F124ECA1E53D27C103B0
:1001E00011241FBECFEFD1E2DEBFCDBF00E00CBFB8
:1001F00023E0A8E3B2E001C01D92AD3BB207E1F7F6
:1002000012E0A0E0B2E0E2EBF8E100E00BBF02C0D8
:1002100007900D92A833B107D9F710E0C0EFD0E0F6
:1002200000E006C021970109802FFE010E943E0ACE
:10023000CF3ED10780E00807A9F733D30C94570CC1
:10024000DFCEFC01A089B18982E08C93A485B585BD
:100250001C92A685B78587E68C93108EA489B589F4
:1002600086E08C93A289B3898C9180618C93A2895A
:10027000B3898C9188608C93A289B3898C918068B2
:100280008C930288F389E02D80818F7D808308958F
:10029000AF92BF92CF92DF92EF92FF920F931F9394
:1002A000CF93DF936C017B018B01040F151FEB01D2
:1002B0005E01AE18BF08C017D10759F06991D60189
:1002C000ED91FC910190F081E02DC6011995892BEB
:1002D00079F7C501DF91CF911F910F91FF90EF90BA
:1002E000DF90CF90BF90AF900895FC01538D448D67
:1002F000252F30E0842F90E0821B930B541710F0D1
:10030000CF96089501970895FC01918D828D9817DD
:1003100061F0A28DAE0FBF2FB11D5D968C91928DB5
:100320009F5F9F73928F90E008958FEF9FEF0895E6
:10033000FC01918D828D981731F0828DE80FF11DAF
:10034000858D90E008958FEF9FEF0895FC01918DCA
:10035000228D892F90E0805C9F4F821B91098F73C3
:100360009927089581E692E0F1DF21E0892B09F4D5
:1003700020E0822F0895FC01A48DA80FB92FB11D94
:10038000A35ABF4F2C91848D90E001968F739927CB
:10039000848FA689B7892C93A089B1898C918370A9
:1003A00080648C93938D848D981306C00288F389A2
:1003B000E02D80818F7D80830895EF92FF920F93CF
:1003C0001F93CF93DF93EC0181E0888F9B8D8C8D01
:1003D00098131AC0E889F989808185FF15C09FB7F5
:1003E000F894EE89FF896083E889F98980818370B8
:1003F000806480839FBF81E090E0DF91CF911F9167
:100400000F91FF90EF900895F62E0B8D10E00F5F87
:100410001F4F0F731127E02E8C8D8E110BC00FB65E
:1004200007FCFACFE889F989808185FFF5CFCE01F5
:10043000A2DFF2CFEB8DEC0FFD2FF11DE35AFF4F42
:10044000F0829FB7F8940B8FEA89FB8980818062E4
:10045000D0CFCF93DF93EC01888D8823B1F0AA89A8
:10046000BB89E889F9898C9185FD03C0808186FD6F
:100470000CC00FB607FCF7CF8C9185FFF2CF8081BF
:1004800085FFEDCFCE0177DFEACFDF91CF910895E1
:1004900080E090E0892B21F065DF81110E9400004F
:1004A00080E090E0892B49F080E090E0892B29F0F2
:1004B0000E94000081110E94000080E090E0892BE2
:1004C00049F080E090E0892B29F00E940000811122
:1004D0000E94000080E090E0892B49F080E090E0ED
:1004E000892B29F00E94000081110C9400000895CE
:1004F000CF93DF93EC0188819981009711F00E94DE
:10050000E20A198218821D821C821B821A82DF91E4
:10051000CF910895FC0180819181009711F00C9496
:10052000E20A08950F931F93CF93DF93EC01888124
:100530009981009759F02A813B812617370730F0BF
:1005400081E0DF91CF911F910F9108958B016F5F33
:100550007F4F0E946B0B009759F0998388831B8310
:100560000A832C813D81232B59F7FC011082E8CFAF
:1005700080E0E7CFEF92FF920F931F93CF93DF932B
:100580006115710541F480E0DF91CF911F910F91CA
:10059000FF90EF90089541155105A9F07B01EC0102
:1005A0000C811D81040F151FB801BCDF882359F38E
:1005B000288139818C819D81B701820F931F0E9410
:1005C000500C1D830C8381E0DFCFCF93DF93EC01D0
:1005D000FB0101900020E9F73197AF01461B570B53
:1005E000C9DF811102C0CE0183DFCE01DF91CF913F
:1005F0000895EF92FF920F931F93CF93DF93EC0137
:100600007B018A01BA018EDF81110AC0CE0170DF41
:10061000CE01DF91CF911F910F91FF90EF90089540
:100620001D830C83B701888199810E94500CF0CF03
:100630001F920F920FB60F9211240BB60F922F93A9
:100640003F934F935F936F937F938F939F93AF935A
:10065000BF93EF93FF9381E692E08DDEFF91EF91E0
:10066000BF91AF919F918F917F916F915F914F91CA
:100670003F912F910F900BBE0F900FBE0F901F90C8
:1006800018951F920F920FB60F9211240BB60F926E
:100690002F938F939F93EF93FF93E0917102F091CB
:1006A00072028081E0917702F091780282FD1DC094
:1006B000908180917A028F5F8F7320917B028217E5
:1006C00041F0E0917A02F0E0EF59FD4F958F809371
:1006D0007A02FF91EF919F918F912F910F900BBE16
:1006E0000F900FBE0F901F9018958081F2CF1F9230
:1006F0000F920FB60F9211242F933F938F939F93D6
:10070000AF93BF9380913D0290913E02A0913F0232
:10071000B091400230913C0223E0230F2D3758F571
:100720000196A11DB11D20933C0280933D02909340
:100730003E02A0933F02B093400280913802909114
:100740003902A0913A02B0913B020196A11DB11D60
:100750008093380290933902A0933A02B0933B02FF
:10076000BF91AF919F918F913F912F910F900FBEAD
:100770000F901F90189526E8230F0296A11DB11D1A
:10078000D2CFCF93DF93A1E6B2E013961C921E92D4
:10079000129748EE53E060E070E014964D935D933D
:1007A0006D937C9317978AE092E011969C938E93B9
:1007B00085EC90E01D969C938E931C9784EC90E0C2
:1007C0001F969C938E931E9780EC90E051969C937D
:1007D0008E93509781EC90E053969C938E93529712
:1007E00082EC90E055969C938E93549786EC90E023
:1007F00057969C938E93569759961C9259975A9652
:100800001C925A975B961C925B975C961C925C9725
:10081000EEEFF2E0B5A3A4A316A217A210A615A6A8
:1008200014A617A616A68FEF9FEF91AB80AB93ABE4
:1008300082AB83E08093320315AA17AA16AA10AEE2
:1008400011AE1092B803A8E3B3E080E8ED0119926D
:100850008A95E9F71182108213821282158214821E
:1008600017821682118610861386128615861486C4
:1008700017861686118A108A138A128A158A148A94
:10088000178A168A118E108E138E128E158E148E64
:10089000178E168E11A210A213A212A2DF91CF9171
:1008A0000895CF93DF93CDB7DEB7A4970FB6F89432
:1008B000DEBF0FBECDBF789484B5826084BD84B5A1
:1008C000816084BD85B5826085BD85B5816085BD4B
:1008D00080916E00816080936E0010928100809103
:1008E000810082608093810080918100816080938B
:1008F0008100809180008160809380008091B100B0
:1009000084608093B1008091B00081608093B000DA
:10091000809191008260809391008091910081602C
:1009200080939100809190008160809390008091ED
:10093000A10082608093A1008091A10081608093DA
:10094000A1008091A00081608093A000809121018E
:100950008260809321018091210181608093210137
:100960008091200181608093200180917A008460D1
:1009700080937A0080917A00826080937A008091DF
:100980007A00816080937A0080917A0080688093F9
:100990007A001092C100809122039091230351DCD0
:1009A00081E0809324031092260310922503109275
:1009B0002D0310922C0310922B0310922A038FEF19
:1009C0009FEF90932F0380932E0390933103809396
:1009D00030031092B8031092350310923403109232
:1009E00033031092360310923703809132038170E3
:1009F000826081608093320381E692E022DC90E4A1
:100A0000992ECE0101967C0180917B00877F809397
:100A10007B0090927C0080917A00806480937A00C1
:100A200080917A0086FDFCCF9091780080917900CA
:100A30008927982789279093600280935F028F31DE
:100A400091050CF42EC12091550230915602821B63
:100A5000930B45970CF425C12FB7F89480913D0274
:100A600090913E02A0913F02B09140022FBF409171
:100A70004102509142026091430270914402841BF2
:100A8000950BA60BB70B4097A105B10508F409C15A
:100A900060915F0270916002072E000C880B990B29
:100AA000CDD320E030E040E450E403D420E030E057
:100AB00040E05EE3FED3B1D477FF02C070E060E0B7
:100AC0006B01603871051CF08FE7C82ED12C1C8E8D
:100AD0001B8E1E8E1D8E18A21F8E4AE0B70186E364
:100AE00090E006D1F70101900020E9F73197AF01BE
:100AF0004E195F09B701CE014B967BDD8FB7F89495
:100B000040903D0250903E0260903F027090400243
:100B10008FBF8091410290914202A0914302B09117
:100B20004402481A590A6A0A7B0AB601DD0C880B8E
:100B3000990B84D32CE033E949E45FE3BAD369A38A
:100B40007AA38BA39CA31E8A1D8A188E1F8A1A8ED5
:100B5000198E45E050E068E172E0CE01459649DD2E
:100B60004F8D58A16B8D7C8DCE01459603DD811193
:100B700003C0CE014596BCDC6EE172E0CE01459625
:100B800024DD5C01870122E044E069A17AA18BA108
:100B90009CA191D0FC0101900020E9F73197AF01B1
:100BA000481B590BBC01C501E5DC811102C0C50120
:100BB0009FDC6BE272E0C50108DD5C012AE0A70161
:100BC000C301B2019FD0F70101900020E9F73197EE
:100BD000AF014E195F09B701C501CCDC811102C01C
:100BE000C50186DC65E372E0C501EFDC1A8219827B
:100BF0001C821B821E821D82E816F90661F0DC0150
:100C00006D917C9111976115710529F014964D91A4
:100C10005C91C701EEDCCE0145967CDC4D815E81A6
:100C200069817A8181E692E033DB2FB7F894809175
:100C30003D0290913E02A0913F02B09140022FBF31
:100C40008093410290934202A0934302B0934402E6
:100C50008091220390912303DC01ED91FC9101909E
:100C6000F081E02D60E91995809122039091230392
:100C7000DC01ED91FC910190F081E02D64E2199589
:100C80008091220390912303DC01ED91FC9101906E
:100C9000F081E02D6C2D1995C7013CDCCE014B96FF
:100CA00039DC80915F0290916002909356028093AC
:100CB0005502EEDBA9CEEF920F931F93CF93DF93F4
:100CC000E80134E047FD34E1042E000C550B57FFDA
:100CD00003C0519541955109E32E022F242FAE01F7
:100CE0004BD0CE01DF91CF911F910F91EF900895DE
:100CF000BB274A3031F4992322F4BDE290958195C7
:100D00009F4F22C0BB27FA01A62F621771058105EC
:100D10009105330B30FB66F0AA27660F771F881FFB
:100D2000991FAA1FA21710F0A21B63953850A9F7AC
:100D3000A05DAA3308F0A95DA19336F7B111B19374
:100D40001082CA0169C2BB27FB015527AA27880F59
:100D5000991FAA1FA41710F0A41B83955051B9F72F
:100D6000A05DAA3308F0A95DA193009779F7B111AE
:100D7000B1931192CB0150C28F929F92AF92BF92CA
:100D8000CF92DF92EF92FF920F931F93CF93DF9357
:100D900000D000D000D0CDB7DEB76A01F22EB02E61
:100DA000102FFBE3AF2EA01608F41BE31F5F012FEB
:100DB00027E0AE014F5F5F4F57D1BC018981982F6B
:100DC0009970913009F44EC09BE2E1FC04C09E2D65
:100DD0009170E0FC49C05E2D5071E82FE87083FFF0
:100DE00055C084E0911101C083E0EF2DE81B8F1501
:100DF00008F0E0E0D6018E2F20E25523C9F19923B7
:100E000029F0D6019C93C60101966C0196012D5FD5
:100E10003F4FE2FE33C08EE4D6018C9391E41196ED
:100E20009C93119712968C93D9018E2F90E2811189
:100E30002AC0E20FF32FF11D10828EEF9FEF29964B
:100E40000FB6F894DEBF0FBECDBFDF91CF911F91DB
:100E50000F91FF90EF90DF90CF90BF90AF909F9059
:100E60008F9008959DE2B7CF90E2B5CF2D9381503A
:100E70008111FCCFCE0ED11CE0E0C1CF8EE6D601B1
:100E80008C9391E6CCCF9D938150D1CF482F447065
:100E900082FF3DC084E0911101C083E08F1510F402
:100EA000EF2DE81BD6018E2F20E2552309F199235F
:100EB00029F0D6019C93C60101966C0196012D5F25
:100EC0003F4FE2FE1BC089E4D6018C938EE411965D
:100ED0008C93119786E412968C93D9018E2F90E211
:100EE000882309F4A6CF9D938150FACF2D9381508A
:100EF0008111FCCFCE0ED11CE0E0D9CF89E6D6011E
:100F00008C938EE611968C93119786E6E4CF9B0125
:100F100077FF02C030E020E0A1E0B0E0911102C014
:100F2000B0E0A0E0F9013196AE0FBF1F8B2C912CE1
:100F3000BB2009F461C05401EFEFAE1ABE0AAA0D3E
:100F4000BB1DFA161B0619F014F04F2D4A1B511148
:100F500088C0E3FC59C07601A42FB0E2A1114FC0B4
:100F6000C40ED11C992309F45BC040E0D601119650
:100F7000F60190836D01552309F448C0012F060F37
:100F80009A81582F507184FF03C0913309F40150A6
:100F900010160CF047C0093008F008E0EEE2FE2E13
:100FA0005B01A01AB10885019194819491082F3FAB
:100FB000320729F4D601FC92F60131966F016217CF
:100FC000730794F1021713077CF5DB01A21BB30B27
:100FD000AA24A394B12CAC0EBD1EAA0DBB1D119664
:100FE0008C9121503109D601119628153905F4F05C
:100FF000F60180836D01DBCFB12CA12CA0CFF701CE
:10100000B1937F01A150AACF9111B0CFD601942FF7
:1010100050E302C05D9391509111FCCFC40ED11CDE
:1010200040E0ACCF01E0BACF80E3DBCF62177307BB
:1010300031F4963388F4953311F4552369F0F601B1
:101040008083FD01842F90E2811108C0A40FB11D9F
:101050001C9290E080E0F3CE81E3F1CF9193815038
:10106000F3CF911183CF8ACF283008F027E03327C0
:10107000DA01990F311D87FD9160009661057105B8
:1010800039F432602E5F3D9330E32A95E1F70895FD
:101090009F3F30F080387105610509F03C5F3C5F8F
:1010A0003D93913008F08068911DDF93CF931F939B
:1010B0000F93FF92EF92192F987F9695E92F9695AF
:1010C0009695E90FFF27E25CFE4F99273327EE2420
:1010D000FF24A701E70105900894079428F4360F30
:1010E000E71EF81E491F511D660F771F881F991FA5
:1010F0000694A1F70590079428F4E70EF81E491FFF
:10110000561FC11D770F881F991F661F0694A1F7F0
:101110000590079428F4F80E491F561FC71FD11DCC
:10112000880F991F661F771F0694A1F705900794F3
:1011300020F4490F561FC71FD81F990F661F771F2E
:10114000881F0694A9F784911095177041F0D695E1
:10115000C79557954795F794E7941A95C1F7E4EE2C
:10116000F0E06894159015913591659195910590F1
:101170007FE27395E118F10A430B560BC90BD009B6
:10118000C0F7E10CF11E431F561FC91FD01D7EF48E
:10119000703311F48A95E6CFE894015030F0080FCF
:1011A0000AF40027021708F4202F2395022F7A3320
:1011B00028F079E37D932A95E9F710C07D932A956D
:1011C00089F6069497956795379517951794E118C2
:1011D000F10A430B560BC90BD00998F023957E9169
:1011E00073957A3308F070E37C932013B8F77E91FF
:1011F00070617D9330F0839571E37D9370E32A9560
:10120000E1F71124EF90FF900F911F91CF91DF91A3
:10121000992787FD90950895DC01FC01672F719156
:101220007723E1F7329704C07C916D9370836291CC
:10123000AE17BF07C8F30895E89409C097FB3EF4C2
:1012400090958095709561957F4F8F4F9F4F992313
:10125000A9F0F92F96E9BB279395F6958795779591
:101260006795B795F111F8CFFAF4BB0F11F460FF51
:101270001BC06F5F7F4F8F4F9F4F16C0882311F0A9
:1012800096E911C0772321F09EE8872F762F05C0BD
:10129000662371F096E8862F70E060E02AF09A9558
:1012A000660F771F881FDAF7880F9695879597F94D
:1012B00008950BD078C069D028F06ED018F095232F
:1012C00009F05AC05FC01124A2C07ED0A0F3959F40
:1012D000D1F3950F50E0551F629FF001729FBB271D
:1012E000F00DB11D639FAA27F00DB11DAA1F649FC9
:1012F0006627B00DA11D661F829F2227B00DA11D7C
:10130000621F739FB00DA11D621F839FA00D611D01
:10131000221F749F3327A00D611D231F849F600D22
:10132000211D822F762F6A2F11249F5750408AF05B
:10133000E1F088234AF0EE0FFF1FBB1F661F771FE7
:10134000881F91505040A9F79E3F510570F014C07E
:101350005EC05F3FECF3983EDCF38695779567952A
:10136000B795F795E7959F5FC1F7FE2B880F911D05
:101370009695879597F9089597F99F6780E870E0AB
:1013800060E008959FEF80EC089500240A941616FB
:10139000170618060906089500240A941216130663
:1013A000140605060895092E0394000C11F48823F1
:1013B00052F0BB0F40F4BF2B11F460FF04C06F5F0D
:1013C0007F4F8F4F9F4F089557FD9058440F551FE3
:1013D00059F05F3F71F04795880F97FB991F61F0B7
:1013E0009F3F79F087950895121613061406551F2E
:1013F000F2CF4695F1DF08C0161617061806991F9A
:10140000F1CF86957105610508940895E894BB278E
:1014100066277727CB0197F9089504D06894B11116
:10142000F6CF0895D9DF88F09F5790F0B92F99270C
:10143000B751A0F0D1F0660F771F881F991F1AF0DF
:10144000BA95C9F712C0B13081F0E0DFB1E008957C
:10145000DDCF672F782F8827B85F39F0B93FCCF3FD
:10146000869577956795B395D9F73EF490958095D5
:10147000709561957F4F8F4F9F4F0895EE0FFF1F1F
:10148000881F8BBF0790F691E02D19940F931F933F
:10149000CF93DF938230910510F482E090E0E091E9
:1014A000BB03F091BC0330E020E0B0E0A0E0309757
:1014B00099F42115310509F44AC0281B390B243051
:1014C0003105D8F58A819B816115710589F1FB0190
:1014D00093838283FE0111C0408151810281138177
:1014E00048175907E0F04817590799F4109761F029
:1014F00012960C93129713961C933296CF01DF919C
:10150000CF911F910F9108950093BB031093BC03DB
:10151000F4CF2115310551F04217530738F0A901D6
:10152000DB019A01BD01DF01F801C1CFEF01F9CF65
:101530009093BC038093BB03CDCFFE01E20FF31F5A
:10154000819391932250310939832883D7CF2091F9
:10155000B9033091BA03232B41F420910202309158
:1015600003023093BA032093B90320910002309113
:1015700001022115310541F42DB73EB74091040217
:1015800050910502241B350BE091B903F091BA0389
:10159000E217F307A0F42E1B3F0B2817390778F04A
:1015A000AC014E5F5F4F2417350748F04E0F5F1FA9
:1015B0005093BA034093B903819391939FCFF0E086
:1015C000E0E09CCFCF93DF930097E9F0FC013297E6
:1015D00013821282A091BB03B091BC03ED0130E0F5
:1015E00020E01097A1F420813181820F931F209178
:1015F000B9033091BA032817390709F061C0F09395
:10160000BA03E093B903DF91CF910895EA01CE17B1
:10161000DF07E8F54A815B819E0141155105B1F76D
:10162000E901FB83EA8349915991C40FD51FEC1757
:10163000FD0761F4808191810296840F951FE90175
:1016400099838883828193819B838A83F0E0E0E0A1
:1016500012968D919C9113970097B9F52D913C911D
:101660001197CD010296820F931F2091B9033091FB
:10167000BA032817390739F6309751F51092BC0391
:101680001092BB03B093BA03A093B903BCCFD3832A
:10169000C28340815181840F951FC817D90761F417
:1016A0004E5F5F4F88819981480F591F5183408356
:1016B0008A819B81938382832115310509F0B0CF04
:1016C000F093BC03E093BB039ECFFD01DC01C0CFD0
:1016D00013821282D7CF4F925F926F927F928F9236
:1016E0009F92AF92BF92CF92DF92EF92FF920F93B1
:1016F0001F93CF93DF938C01009791F4CB01DF917F
:10170000CF911F910F91FF90EF90DF90CF90BF90FE
:10171000AF909F908F907F906F905F904F90B6CEDC
:10172000FC01E60FF71F9C0122503109E217F30775
:1017300008F4AAC0D901CD91DC911197C617D7073B
:1017400018F1C530D10570F0CE01049786179707C0
:1017500048F0C61BD70B2297C193D1936D937C930E
:10176000CF0130DFC801DF91CF911F910F91FF9022
:10177000EF90DF90CF90BF90AF909F908F907F9031
:101780006F905F904F9008955B01AC1ABD0A4C01B9
:101790008C0E9D1EA091BB03B091BC03512C412C1B
:1017A000F12CE12C109731F58091B9039091BA0397
:1017B0008815990509F05CC04616570608F058C010
:1017C0008091000290910102009741F48DB79EB77D
:1017D0004091040250910502841B950BE817F9070C
:1017E00008F052C0F093BA03E093B903F901718392
:1017F0006083B8CF8D919C91119712966C9012973F
:1018000013967C901397A815B90559F56C0142E021
:10181000C40ED11CCA14DB0420F1AC014A195B09C7
:10182000DA011296159780F06282738251834083A9
:10183000D9016D937C93E114F10471F0D7011396F3
:10184000FC93EE9312978ECF22968C0F9D1FF90179
:1018500091838083F301EFCFF093BC03E093BB034C
:1018600081CF4816590608F42C017D01D3019ACF87
:10187000CB010CDE7C01009739F0AE01B80107D036
:10188000C801A0DE87016ECF10E000E06BCFFB0146
:10189000DC0102C001900D9241505040D8F70895EC
:1018A000FB01DC0101900D920020E1F70895F8940E
:0218B000FFCF68
:1018B2000000BD03800000000000DD014801750149
:1018C2002902A601840198010A5061643A002C0998
:1018D20076656C6F636974793D20000964656C7488
:0818E20061543A2000097C006A
:00000001FF
